{
    "_format": "hh-sol-artifact-1",
    "contractName": "AfroPunkNFT",
    "sourceName": "contracts/AfroPunkNFT.sol",
    "abi": [
        {
            "inputs": [],
            "stateMutability": "payable",
            "type": "constructor"
        },
        {
            "anonymous": false,
            "inputs": [
                {
                    "indexed": true,
                    "internalType": "address",
                    "name": "owner",
                    "type": "address"
                },
                {
                    "indexed": true,
                    "internalType": "address",
                    "name": "approved",
                    "type": "address"
                },
                {
                    "indexed": true,
                    "internalType": "uint256",
                    "name": "tokenId",
                    "type": "uint256"
                }
            ],
            "name": "Approval",
            "type": "event"
        },
        {
            "anonymous": false,
            "inputs": [
                {
                    "indexed": true,
                    "internalType": "address",
                    "name": "owner",
                    "type": "address"
                },
                {
                    "indexed": true,
                    "internalType": "address",
                    "name": "operator",
                    "type": "address"
                },
                {
                    "indexed": false,
                    "internalType": "bool",
                    "name": "approved",
                    "type": "bool"
                }
            ],
            "name": "ApprovalForAll",
            "type": "event"
        },
        {
            "anonymous": false,
            "inputs": [
                {
                    "indexed": true,
                    "internalType": "address",
                    "name": "previousOwner",
                    "type": "address"
                },
                {
                    "indexed": true,
                    "internalType": "address",
                    "name": "newOwner",
                    "type": "address"
                }
            ],
            "name": "OwnershipTransferred",
            "type": "event"
        },
        {
            "anonymous": false,
            "inputs": [
                {
                    "indexed": true,
                    "internalType": "address",
                    "name": "from",
                    "type": "address"
                },
                {
                    "indexed": true,
                    "internalType": "address",
                    "name": "to",
                    "type": "address"
                },
                {
                    "indexed": true,
                    "internalType": "uint256",
                    "name": "tokenId",
                    "type": "uint256"
                }
            ],
            "name": "Transfer",
            "type": "event"
        },
        {
            "inputs": [
                {
                    "internalType": "address",
                    "name": "to",
                    "type": "address"
                },
                {
                    "internalType": "uint256",
                    "name": "tokenId",
                    "type": "uint256"
                }
            ],
            "name": "approve",
            "outputs": [],
            "stateMutability": "nonpayable",
            "type": "function"
        },
        {
            "inputs": [
                {
                    "internalType": "address",
                    "name": "owner",
                    "type": "address"
                }
            ],
            "name": "balanceOf",
            "outputs": [
                {
                    "internalType": "uint256",
                    "name": "",
                    "type": "uint256"
                }
            ],
            "stateMutability": "view",
            "type": "function"
        },
        {
            "inputs": [
                {
                    "internalType": "bool",
                    "name": "_status",
                    "type": "bool"
                }
            ],
            "name": "enable_public_mint",
            "outputs": [],
            "stateMutability": "nonpayable",
            "type": "function"
        },
        {
            "inputs": [
                {
                    "internalType": "uint256",
                    "name": "tokenId",
                    "type": "uint256"
                }
            ],
            "name": "getApproved",
            "outputs": [
                {
                    "internalType": "address",
                    "name": "",
                    "type": "address"
                }
            ],
            "stateMutability": "view",
            "type": "function"
        },
        {
            "inputs": [
                {
                    "internalType": "address",
                    "name": "owner",
                    "type": "address"
                },
                {
                    "internalType": "address",
                    "name": "operator",
                    "type": "address"
                }
            ],
            "name": "isApprovedForAll",
            "outputs": [
                {
                    "internalType": "bool",
                    "name": "",
                    "type": "bool"
                }
            ],
            "stateMutability": "view",
            "type": "function"
        },
        {
            "inputs": [],
            "name": "is_mint_enabled",
            "outputs": [
                {
                    "internalType": "bool",
                    "name": "",
                    "type": "bool"
                }
            ],
            "stateMutability": "view",
            "type": "function"
        },
        {
            "inputs": [],
            "name": "max_per_wallet",
            "outputs": [
                {
                    "internalType": "uint256",
                    "name": "",
                    "type": "uint256"
                }
            ],
            "stateMutability": "view",
            "type": "function"
        },
        {
            "inputs": [],
            "name": "max_supply",
            "outputs": [
                {
                    "internalType": "uint256",
                    "name": "",
                    "type": "uint256"
                }
            ],
            "stateMutability": "view",
            "type": "function"
        },
        {
            "inputs": [
                {
                    "internalType": "uint256",
                    "name": "quantity",
                    "type": "uint256"
                }
            ],
            "name": "mint",
            "outputs": [],
            "stateMutability": "payable",
            "type": "function"
        },
        {
            "inputs": [],
            "name": "mint_price",
            "outputs": [
                {
                    "internalType": "uint256",
                    "name": "",
                    "type": "uint256"
                }
            ],
            "stateMutability": "view",
            "type": "function"
        },
        {
            "inputs": [],
            "name": "name",
            "outputs": [
                {
                    "internalType": "string",
                    "name": "",
                    "type": "string"
                }
            ],
            "stateMutability": "view",
            "type": "function"
        },
        {
            "inputs": [],
            "name": "owner",
            "outputs": [
                {
                    "internalType": "address",
                    "name": "",
                    "type": "address"
                }
            ],
            "stateMutability": "view",
            "type": "function"
        },
        {
            "inputs": [
                {
                    "internalType": "uint256",
                    "name": "tokenId",
                    "type": "uint256"
                }
            ],
            "name": "ownerOf",
            "outputs": [
                {
                    "internalType": "address",
                    "name": "",
                    "type": "address"
                }
            ],
            "stateMutability": "view",
            "type": "function"
        },
        {
            "inputs": [],
            "name": "renounceOwnership",
            "outputs": [],
            "stateMutability": "nonpayable",
            "type": "function"
        },
        {
            "inputs": [
                {
                    "internalType": "address",
                    "name": "from",
                    "type": "address"
                },
                {
                    "internalType": "address",
                    "name": "to",
                    "type": "address"
                },
                {
                    "internalType": "uint256",
                    "name": "tokenId",
                    "type": "uint256"
                }
            ],
            "name": "safeTransferFrom",
            "outputs": [],
            "stateMutability": "nonpayable",
            "type": "function"
        },
        {
            "inputs": [
                {
                    "internalType": "address",
                    "name": "from",
                    "type": "address"
                },
                {
                    "internalType": "address",
                    "name": "to",
                    "type": "address"
                },
                {
                    "internalType": "uint256",
                    "name": "tokenId",
                    "type": "uint256"
                },
                {
                    "internalType": "bytes",
                    "name": "data",
                    "type": "bytes"
                }
            ],
            "name": "safeTransferFrom",
            "outputs": [],
            "stateMutability": "nonpayable",
            "type": "function"
        },
        {
            "inputs": [
                {
                    "internalType": "address",
                    "name": "operator",
                    "type": "address"
                },
                {
                    "internalType": "bool",
                    "name": "approved",
                    "type": "bool"
                }
            ],
            "name": "setApprovalForAll",
            "outputs": [],
            "stateMutability": "nonpayable",
            "type": "function"
        },
        {
            "inputs": [
                {
                    "internalType": "string",
                    "name": "uri",
                    "type": "string"
                }
            ],
            "name": "set_base_token_uri",
            "outputs": [],
            "stateMutability": "nonpayable",
            "type": "function"
        },
        {
            "inputs": [
                {
                    "internalType": "bytes4",
                    "name": "interfaceId",
                    "type": "bytes4"
                }
            ],
            "name": "supportsInterface",
            "outputs": [
                {
                    "internalType": "bool",
                    "name": "",
                    "type": "bool"
                }
            ],
            "stateMutability": "view",
            "type": "function"
        },
        {
            "inputs": [],
            "name": "symbol",
            "outputs": [
                {
                    "internalType": "string",
                    "name": "",
                    "type": "string"
                }
            ],
            "stateMutability": "view",
            "type": "function"
        },
        {
            "inputs": [
                {
                    "internalType": "uint256",
                    "name": "tokenId_",
                    "type": "uint256"
                }
            ],
            "name": "tokenURI",
            "outputs": [
                {
                    "internalType": "string",
                    "name": "",
                    "type": "string"
                }
            ],
            "stateMutability": "view",
            "type": "function"
        },
        {
            "inputs": [],
            "name": "total_supply",
            "outputs": [
                {
                    "internalType": "uint256",
                    "name": "",
                    "type": "uint256"
                }
            ],
            "stateMutability": "view",
            "type": "function"
        },
        {
            "inputs": [
                {
                    "internalType": "address",
                    "name": "from",
                    "type": "address"
                },
                {
                    "internalType": "address",
                    "name": "to",
                    "type": "address"
                },
                {
                    "internalType": "uint256",
                    "name": "tokenId",
                    "type": "uint256"
                }
            ],
            "name": "transferFrom",
            "outputs": [],
            "stateMutability": "nonpayable",
            "type": "function"
        },
        {
            "inputs": [
                {
                    "internalType": "address",
                    "name": "newOwner",
                    "type": "address"
                }
            ],
            "name": "transferOwnership",
            "outputs": [],
            "stateMutability": "nonpayable",
            "type": "function"
        },
        {
            "inputs": [
                {
                    "internalType": "address",
                    "name": "",
                    "type": "address"
                }
            ],
            "name": "wallet_mints",
            "outputs": [
                {
                    "internalType": "uint256",
                    "name": "",
                    "type": "uint256"
                }
            ],
            "stateMutability": "view",
            "type": "function"
        },
        {
            "inputs": [],
            "name": "withdraw",
            "outputs": [],
            "stateMutability": "nonpayable",
            "type": "function"
        },
        {
            "inputs": [],
            "name": "withdraw_wallet",
            "outputs": [
                {
                    "internalType": "address payable",
                    "name": "",
                    "type": "address"
                }
            ],
            "stateMutability": "view",
            "type": "function"
        }
    ],
    "bytecode": "0x60806040526040518060400160405280600881526020017f4166726f50756e6b0000000000000000000000000000000000000000000000008152506040518060400160405280600481526020017f524f424f00000000000000000000000000000000000000000000000000000000815250816000908051906020019062000088929190620001bf565b508060019080519060200190620000a1929190620001bf565b505050620000c4620000b8620000f160201b60201c565b620000f960201b60201c565b66470de4df82000060078190555060006008819055506103e86009819055506003600a81905550620002d4565b600033905090565b6000600660009054906101000a900473ffffffffffffffffffffffffffffffffffffffff16905081600660006101000a81548173ffffffffffffffffffffffffffffffffffffffff021916908373ffffffffffffffffffffffffffffffffffffffff1602179055508173ffffffffffffffffffffffffffffffffffffffff168173ffffffffffffffffffffffffffffffffffffffff167f8be0079c531659141344cd1fd0a4f28419497f9722a3daafe3b4186f6b6457e060405160405180910390a35050565b828054620001cd906200029e565b90600052602060002090601f016020900481019282620001f157600085556200023d565b82601f106200020c57805160ff19168380011785556200023d565b828001600101855582156200023d579182015b828111156200023c5782518255916020019190600101906200021f565b5b5090506200024c919062000250565b5090565b5b808211156200026b57600081600090555060010162000251565b5090565b7f4e487b7100000000000000000000000000000000000000000000000000000000600052602260045260246000fd5b60006002820490506001821680620002b757607f821691505b60208210811415620002ce57620002cd6200026f565b5b50919050565b6136a880620002e46000396000f3fe60806040526004361061019c5760003560e01c8063715018a6116100ec578063b88d4fde1161008a578063daf9960011610064578063daf99600146105a5578063db22a6d2146105d0578063e985e9c5146105fb578063f2fde38b146106385761019c565b8063b88d4fde14610516578063bae483d31461053f578063c87b56dd146105685761019c565b806395d89b41116100c657806395d89b411461047b578063a0712d68146104a6578063a22cb465146104c2578063ab53fcaa146104eb5761019c565b8063715018a61461040e5780638a333b50146104255780638da5cb5b146104505761019c565b80633940e9ee1161015957806353a2b86b1161013357806353a2b86b1461032e5780635e12091c1461036b5780636352211e1461039457806370a08231146103d15761019c565b80633940e9ee146102c35780633ccfd60b146102ee57806342842e0e146103055761019c565b806301ffc9a7146101a157806306fdde03146101de578063081812fc14610209578063095ea7b3146102465780631a4231a41461026f57806323b872dd1461029a575b600080fd5b3480156101ad57600080fd5b506101c860048036038101906101c39190612271565b610661565b6040516101d591906122b9565b60405180910390f35b3480156101ea57600080fd5b506101f3610743565b604051610200919061236d565b60405180910390f35b34801561021557600080fd5b50610230600480360381019061022b91906123c5565b6107d5565b60405161023d9190612433565b60405180910390f35b34801561025257600080fd5b5061026d6004803603810190610268919061247a565b61081b565b005b34801561027b57600080fd5b50610284610933565b60405161029191906124c9565b60405180910390f35b3480156102a657600080fd5b506102c160048036038101906102bc91906124e4565b610939565b005b3480156102cf57600080fd5b506102d8610999565b6040516102e591906124c9565b60405180910390f35b3480156102fa57600080fd5b5061030361099f565b005b34801561031157600080fd5b5061032c600480360381019061032791906124e4565b610a78565b005b34801561033a57600080fd5b5061035560048036038101906103509190612537565b610a98565b60405161036291906124c9565b60405180910390f35b34801561037757600080fd5b50610392600480360381019061038d91906125c9565b610ab0565b005b3480156103a057600080fd5b506103bb60048036038101906103b691906123c5565b610ace565b6040516103c89190612433565b60405180910390f35b3480156103dd57600080fd5b506103f860048036038101906103f39190612537565b610b55565b60405161040591906124c9565b60405180910390f35b34801561041a57600080fd5b50610423610c0d565b005b34801561043157600080fd5b5061043a610c21565b60405161044791906124c9565b60405180910390f35b34801561045c57600080fd5b50610465610c27565b6040516104729190612433565b60405180910390f35b34801561048757600080fd5b50610490610c51565b60405161049d919061236d565b60405180910390f35b6104c060048036038101906104bb91906123c5565b610ce3565b005b3480156104ce57600080fd5b506104e960048036038101906104e49190612642565b610eba565b005b3480156104f757600080fd5b50610500610ed0565b60405161050d91906124c9565b60405180910390f35b34801561052257600080fd5b5061053d600480360381019061053891906127b2565b610ed6565b005b34801561054b57600080fd5b5061056660048036038101906105619190612835565b610f38565b005b34801561057457600080fd5b5061058f600480360381019061058a91906123c5565b610f5d565b60405161059c919061236d565b60405180910390f35b3480156105b157600080fd5b506105ba610fd9565b6040516105c79190612883565b60405180910390f35b3480156105dc57600080fd5b506105e5610fff565b6040516105f291906122b9565b60405180910390f35b34801561060757600080fd5b50610622600480360381019061061d919061289e565b611012565b60405161062f91906122b9565b60405180910390f35b34801561064457600080fd5b5061065f600480360381019061065a9190612537565b6110a6565b005b60007f80ac58cd000000000000000000000000000000000000000000000000000000007bffffffffffffffffffffffffffffffffffffffffffffffffffffffff1916827bffffffffffffffffffffffffffffffffffffffffffffffffffffffff1916148061072c57507f5b5e139f000000000000000000000000000000000000000000000000000000007bffffffffffffffffffffffffffffffffffffffffffffffffffffffff1916827bffffffffffffffffffffffffffffffffffffffffffffffffffffffff1916145b8061073c575061073b8261112a565b5b9050919050565b6060600080546107529061290d565b80601f016020809104026020016040519081016040528092919081815260200182805461077e9061290d565b80156107cb5780601f106107a0576101008083540402835291602001916107cb565b820191906000526020600020905b8154815290600101906020018083116107ae57829003601f168201915b5050505050905090565b60006107e082611194565b6004600083815260200190815260200160002060009054906101000a900473ffffffffffffffffffffffffffffffffffffffff169050919050565b600061082682610ace565b90508073ffffffffffffffffffffffffffffffffffffffff168373ffffffffffffffffffffffffffffffffffffffff161415610897576040517f08c379a000000000000000000000000000000000000000000000000000000000815260040161088e906129b1565b60405180910390fd5b8073ffffffffffffffffffffffffffffffffffffffff166108b66111df565b73ffffffffffffffffffffffffffffffffffffffff1614806108e557506108e4816108df6111df565b611012565b5b610924576040517f08c379a000000000000000000000000000000000000000000000000000000000815260040161091b90612a43565b60405180910390fd5b61092e83836111e7565b505050565b60075481565b61094a6109446111df565b826112a0565b610989576040517f08c379a000000000000000000000000000000000000000000000000000000000815260040161098090612ad5565b60405180910390fd5b610994838383611335565b505050565b60085481565b6109a761162f565b6000600d60009054906101000a900473ffffffffffffffffffffffffffffffffffffffff1673ffffffffffffffffffffffffffffffffffffffff16476040516109ef90612b26565b60006040518083038185875af1925050503d8060008114610a2c576040519150601f19603f3d011682016040523d82523d6000602084013e610a31565b606091505b5050905080610a75576040517f08c379a0000000000000000000000000000000000000000000000000000000008152600401610a6c90612b87565b60405180910390fd5b50565b610a9383838360405180602001604052806000815250610ed6565b505050565b600e6020528060005260406000206000915090505481565b610ab861162f565b8181600c9190610ac9929190612162565b505050565b600080610ada836116ad565b9050600073ffffffffffffffffffffffffffffffffffffffff168173ffffffffffffffffffffffffffffffffffffffff161415610b4c576040517f08c379a0000000000000000000000000000000000000000000000000000000008152600401610b4390612bf3565b60405180910390fd5b80915050919050565b60008073ffffffffffffffffffffffffffffffffffffffff168273ffffffffffffffffffffffffffffffffffffffff161415610bc6576040517f08c379a0000000000000000000000000000000000000000000000000000000008152600401610bbd90612c85565b60405180910390fd5b600360008373ffffffffffffffffffffffffffffffffffffffff1673ffffffffffffffffffffffffffffffffffffffff168152602001908152602001600020549050919050565b610c1561162f565b610c1f60006116ea565b565b60095481565b6000600660009054906101000a900473ffffffffffffffffffffffffffffffffffffffff16905090565b606060018054610c609061290d565b80601f0160208091040260200160405190810160405280929190818152602001828054610c8c9061290d565b8015610cd95780601f10610cae57610100808354040283529160200191610cd9565b820191906000526020600020905b815481529060010190602001808311610cbc57829003601f168201915b5050505050905090565b600b60009054906101000a900460ff16610d32576040517f08c379a0000000000000000000000000000000000000000000000000000000008152600401610d2990612cf1565b60405180910390fd5b60075481610d409190612d40565b3414610d81576040517f08c379a0000000000000000000000000000000000000000000000000000000008152600401610d7890612de6565b60405180910390fd5b60095481600854610d929190612e06565b1115610dd3576040517f08c379a0000000000000000000000000000000000000000000000000000000008152600401610dca90612ea8565b60405180910390fd5b600a5481600e60003373ffffffffffffffffffffffffffffffffffffffff1673ffffffffffffffffffffffffffffffffffffffff16815260200190815260200160002054610e219190612e06565b1115610e62576040517f08c379a0000000000000000000000000000000000000000000000000000000008152600401610e5990612f14565b60405180910390fd5b60005b81811015610eb65760006001600854610e7e9190612e06565b905060086000815480929190610e9390612f34565b9190505550610ea233826117b0565b508080610eae90612f34565b915050610e65565b5050565b610ecc610ec56111df565b83836117ce565b5050565b600a5481565b610ee7610ee16111df565b836112a0565b610f26576040517f08c379a0000000000000000000000000000000000000000000000000000000008152600401610f1d90612ad5565b60405180910390fd5b610f328484848461193b565b50505050565b610f4061162f565b80600b60006101000a81548160ff02191690831515021790555050565b6060610f6882611997565b610fa7576040517f08c379a0000000000000000000000000000000000000000000000000000000008152600401610f9e90612fc9565b60405180910390fd5b600c610fb2836119d8565b604051602001610fc3929190613105565b6040516020818303038152906040529050919050565b600d60009054906101000a900473ffffffffffffffffffffffffffffffffffffffff1681565b600b60009054906101000a900460ff1681565b6000600560008473ffffffffffffffffffffffffffffffffffffffff1673ffffffffffffffffffffffffffffffffffffffff16815260200190815260200160002060008373ffffffffffffffffffffffffffffffffffffffff1673ffffffffffffffffffffffffffffffffffffffff16815260200190815260200160002060009054906101000a900460ff16905092915050565b6110ae61162f565b600073ffffffffffffffffffffffffffffffffffffffff168173ffffffffffffffffffffffffffffffffffffffff16141561111e576040517f08c379a0000000000000000000000000000000000000000000000000000000008152600401611115906131a6565b60405180910390fd5b611127816116ea565b50565b60007f01ffc9a7000000000000000000000000000000000000000000000000000000007bffffffffffffffffffffffffffffffffffffffffffffffffffffffff1916827bffffffffffffffffffffffffffffffffffffffffffffffffffffffff1916149050919050565b61119d81611997565b6111dc576040517f08c379a00000000000000000000000000000000000000000000000000000000081526004016111d390612bf3565b60405180910390fd5b50565b600033905090565b816004600083815260200190815260200160002060006101000a81548173ffffffffffffffffffffffffffffffffffffffff021916908373ffffffffffffffffffffffffffffffffffffffff160217905550808273ffffffffffffffffffffffffffffffffffffffff1661125a83610ace565b73ffffffffffffffffffffffffffffffffffffffff167f8c5be1e5ebec7d5bd14f71427d1e84f3dd0314c0f7b2291e5b200ac8c7c3b92560405160405180910390a45050565b6000806112ac83610ace565b90508073ffffffffffffffffffffffffffffffffffffffff168473ffffffffffffffffffffffffffffffffffffffff1614806112ee57506112ed8185611012565b5b8061132c57508373ffffffffffffffffffffffffffffffffffffffff16611314846107d5565b73ffffffffffffffffffffffffffffffffffffffff16145b91505092915050565b8273ffffffffffffffffffffffffffffffffffffffff1661135582610ace565b73ffffffffffffffffffffffffffffffffffffffff16146113ab576040517f08c379a00000000000000000000000000000000000000000000000000000000081526004016113a290613238565b60405180910390fd5b600073ffffffffffffffffffffffffffffffffffffffff168273ffffffffffffffffffffffffffffffffffffffff16141561141b576040517f08c379a0000000000000000000000000000000000000000000000000000000008152600401611412906132ca565b60405180910390fd5b6114288383836001611ab0565b8273ffffffffffffffffffffffffffffffffffffffff1661144882610ace565b73ffffffffffffffffffffffffffffffffffffffff161461149e576040517f08c379a000000000000000000000000000000000000000000000000000000000815260040161149590613238565b60405180910390fd5b6004600082815260200190815260200160002060006101000a81549073ffffffffffffffffffffffffffffffffffffffff02191690556001600360008573ffffffffffffffffffffffffffffffffffffffff1673ffffffffffffffffffffffffffffffffffffffff168152602001908152602001600020600082825403925050819055506001600360008473ffffffffffffffffffffffffffffffffffffffff1673ffffffffffffffffffffffffffffffffffffffff16815260200190815260200160002060008282540192505081905550816002600083815260200190815260200160002060006101000a81548173ffffffffffffffffffffffffffffffffffffffff021916908373ffffffffffffffffffffffffffffffffffffffff160217905550808273ffffffffffffffffffffffffffffffffffffffff168473ffffffffffffffffffffffffffffffffffffffff167fddf252ad1be2c89b69c2b068fc378daa952ba7f163c4a11628f55a4df523b3ef60405160405180910390a461162a8383836001611bd6565b505050565b6116376111df565b73ffffffffffffffffffffffffffffffffffffffff16611655610c27565b73ffffffffffffffffffffffffffffffffffffffff16146116ab576040517f08c379a00000000000000000000000000000000000000000000000000000000081526004016116a290613336565b60405180910390fd5b565b60006002600083815260200190815260200160002060009054906101000a900473ffffffffffffffffffffffffffffffffffffffff169050919050565b6000600660009054906101000a900473ffffffffffffffffffffffffffffffffffffffff16905081600660006101000a81548173ffffffffffffffffffffffffffffffffffffffff021916908373ffffffffffffffffffffffffffffffffffffffff1602179055508173ffffffffffffffffffffffffffffffffffffffff168173ffffffffffffffffffffffffffffffffffffffff167f8be0079c531659141344cd1fd0a4f28419497f9722a3daafe3b4186f6b6457e060405160405180910390a35050565b6117ca828260405180602001604052806000815250611bdc565b5050565b8173ffffffffffffffffffffffffffffffffffffffff168373ffffffffffffffffffffffffffffffffffffffff16141561183d576040517f08c379a0000000000000000000000000000000000000000000000000000000008152600401611834906133a2565b60405180910390fd5b80600560008573ffffffffffffffffffffffffffffffffffffffff1673ffffffffffffffffffffffffffffffffffffffff16815260200190815260200160002060008473ffffffffffffffffffffffffffffffffffffffff1673ffffffffffffffffffffffffffffffffffffffff16815260200190815260200160002060006101000a81548160ff0219169083151502179055508173ffffffffffffffffffffffffffffffffffffffff168373ffffffffffffffffffffffffffffffffffffffff167f17307eab39ab6107e8899845ad3d59bd9653f200f220920489ca2b5937696c318360405161192e91906122b9565b60405180910390a3505050565b611946848484611335565b61195284848484611c37565b611991576040517f08c379a000000000000000000000000000000000000000000000000000000000815260040161198890613434565b60405180910390fd5b50505050565b60008073ffffffffffffffffffffffffffffffffffffffff166119b9836116ad565b73ffffffffffffffffffffffffffffffffffffffff1614159050919050565b6060600060016119e784611dce565b01905060008167ffffffffffffffff811115611a0657611a05612687565b5b6040519080825280601f01601f191660200182016040528015611a385781602001600182028036833780820191505090505b509050600082602001820190505b600115611aa5578080600190039150507f3031323334353637383961626364656600000000000000000000000000000000600a86061a8153600a8581611a8f57611a8e613454565b5b0494506000851415611aa057611aa5565b611a46565b819350505050919050565b6001811115611bd057600073ffffffffffffffffffffffffffffffffffffffff168473ffffffffffffffffffffffffffffffffffffffff1614611b445780600360008673ffffffffffffffffffffffffffffffffffffffff1673ffffffffffffffffffffffffffffffffffffffff1681526020019081526020016000206000828254611b3c9190613483565b925050819055505b600073ffffffffffffffffffffffffffffffffffffffff168373ffffffffffffffffffffffffffffffffffffffff1614611bcf5780600360008573ffffffffffffffffffffffffffffffffffffffff1673ffffffffffffffffffffffffffffffffffffffff1681526020019081526020016000206000828254611bc79190612e06565b925050819055505b5b50505050565b50505050565b611be68383611f21565b611bf36000848484611c37565b611c32576040517f08c379a0000000000000000000000000000000000000000000000000000000008152600401611c2990613434565b60405180910390fd5b505050565b6000611c588473ffffffffffffffffffffffffffffffffffffffff1661213f565b15611dc1578373ffffffffffffffffffffffffffffffffffffffff1663150b7a02611c816111df565b8786866040518563ffffffff1660e01b8152600401611ca3949392919061350c565b602060405180830381600087803b158015611cbd57600080fd5b505af1925050508015611cee57506040513d601f19601f82011682018060405250810190611ceb919061356d565b60015b611d71573d8060008114611d1e576040519150601f19603f3d011682016040523d82523d6000602084013e611d23565b606091505b50600081511415611d69576040517f08c379a0000000000000000000000000000000000000000000000000000000008152600401611d6090613434565b60405180910390fd5b805181602001fd5b63150b7a0260e01b7bffffffffffffffffffffffffffffffffffffffffffffffffffffffff1916817bffffffffffffffffffffffffffffffffffffffffffffffffffffffff191614915050611dc6565b600190505b949350505050565b600080600090507a184f03e93ff9f4daa797ed6e38ed64bf6a1f0100000000000000008310611e2c577a184f03e93ff9f4daa797ed6e38ed64bf6a1f0100000000000000008381611e2257611e21613454565b5b0492506040810190505b6d04ee2d6d415b85acef81000000008310611e69576d04ee2d6d415b85acef81000000008381611e5f57611e5e613454565b5b0492506020810190505b662386f26fc100008310611e9857662386f26fc100008381611e8e57611e8d613454565b5b0492506010810190505b6305f5e1008310611ec1576305f5e1008381611eb757611eb6613454565b5b0492506008810190505b6127108310611ee6576127108381611edc57611edb613454565b5b0492506004810190505b60648310611f095760648381611eff57611efe613454565b5b0492506002810190505b600a8310611f18576001810190505b80915050919050565b600073ffffffffffffffffffffffffffffffffffffffff168273ffffffffffffffffffffffffffffffffffffffff161415611f91576040517f08c379a0000000000000000000000000000000000000000000000000000000008152600401611f88906135e6565b60405180910390fd5b611f9a81611997565b15611fda576040517f08c379a0000000000000000000000000000000000000000000000000000000008152600401611fd190613652565b60405180910390fd5b611fe8600083836001611ab0565b611ff181611997565b15612031576040517f08c379a000000000000000000000000000000000000000000000000000000000815260040161202890613652565b60405180910390fd5b6001600360008473ffffffffffffffffffffffffffffffffffffffff1673ffffffffffffffffffffffffffffffffffffffff16815260200190815260200160002060008282540192505081905550816002600083815260200190815260200160002060006101000a81548173ffffffffffffffffffffffffffffffffffffffff021916908373ffffffffffffffffffffffffffffffffffffffff160217905550808273ffffffffffffffffffffffffffffffffffffffff16600073ffffffffffffffffffffffffffffffffffffffff167fddf252ad1be2c89b69c2b068fc378daa952ba7f163c4a11628f55a4df523b3ef60405160405180910390a461213b600083836001611bd6565b5050565b6000808273ffffffffffffffffffffffffffffffffffffffff163b119050919050565b82805461216e9061290d565b90600052602060002090601f01602090048101928261219057600085556121d7565b82601f106121a957803560ff19168380011785556121d7565b828001600101855582156121d7579182015b828111156121d65782358255916020019190600101906121bb565b5b5090506121e491906121e8565b5090565b5b808211156122015760008160009055506001016121e9565b5090565b6000604051905090565b600080fd5b600080fd5b60007fffffffff0000000000000000000000000000000000000000000000000000000082169050919050565b61224e81612219565b811461225957600080fd5b50565b60008135905061226b81612245565b92915050565b6000602082840312156122875761228661220f565b5b60006122958482850161225c565b91505092915050565b60008115159050919050565b6122b38161229e565b82525050565b60006020820190506122ce60008301846122aa565b92915050565b600081519050919050565b600082825260208201905092915050565b60005b8381101561230e5780820151818401526020810190506122f3565b8381111561231d576000848401525b50505050565b6000601f19601f8301169050919050565b600061233f826122d4565b61234981856122df565b93506123598185602086016122f0565b61236281612323565b840191505092915050565b600060208201905081810360008301526123878184612334565b905092915050565b6000819050919050565b6123a28161238f565b81146123ad57600080fd5b50565b6000813590506123bf81612399565b92915050565b6000602082840312156123db576123da61220f565b5b60006123e9848285016123b0565b91505092915050565b600073ffffffffffffffffffffffffffffffffffffffff82169050919050565b600061241d826123f2565b9050919050565b61242d81612412565b82525050565b60006020820190506124486000830184612424565b92915050565b61245781612412565b811461246257600080fd5b50565b6000813590506124748161244e565b92915050565b600080604083850312156124915761249061220f565b5b600061249f85828601612465565b92505060206124b0858286016123b0565b9150509250929050565b6124c38161238f565b82525050565b60006020820190506124de60008301846124ba565b92915050565b6000806000606084860312156124fd576124fc61220f565b5b600061250b86828701612465565b935050602061251c86828701612465565b925050604061252d868287016123b0565b9150509250925092565b60006020828403121561254d5761254c61220f565b5b600061255b84828501612465565b91505092915050565b600080fd5b600080fd5b600080fd5b60008083601f84011261258957612588612564565b5b8235905067ffffffffffffffff8111156125a6576125a5612569565b5b6020830191508360018202830111156125c2576125c161256e565b5b9250929050565b600080602083850312156125e0576125df61220f565b5b600083013567ffffffffffffffff8111156125fe576125fd612214565b5b61260a85828601612573565b92509250509250929050565b61261f8161229e565b811461262a57600080fd5b50565b60008135905061263c81612616565b92915050565b600080604083850312156126595761265861220f565b5b600061266785828601612465565b92505060206126788582860161262d565b9150509250929050565b600080fd5b7f4e487b7100000000000000000000000000000000000000000000000000000000600052604160045260246000fd5b6126bf82612323565b810181811067ffffffffffffffff821117156126de576126dd612687565b5b80604052505050565b60006126f1612205565b90506126fd82826126b6565b919050565b600067ffffffffffffffff82111561271d5761271c612687565b5b61272682612323565b9050602081019050919050565b82818337600083830152505050565b600061275561275084612702565b6126e7565b90508281526020810184848401111561277157612770612682565b5b61277c848285612733565b509392505050565b600082601f83011261279957612798612564565b5b81356127a9848260208601612742565b91505092915050565b600080600080608085870312156127cc576127cb61220f565b5b60006127da87828801612465565b94505060206127eb87828801612465565b93505060406127fc878288016123b0565b925050606085013567ffffffffffffffff81111561281d5761281c612214565b5b61282987828801612784565b91505092959194509250565b60006020828403121561284b5761284a61220f565b5b60006128598482850161262d565b91505092915050565b600061286d826123f2565b9050919050565b61287d81612862565b82525050565b60006020820190506128986000830184612874565b92915050565b600080604083850312156128b5576128b461220f565b5b60006128c385828601612465565b92505060206128d485828601612465565b9150509250929050565b7f4e487b7100000000000000000000000000000000000000000000000000000000600052602260045260246000fd5b6000600282049050600182168061292557607f821691505b60208210811415612939576129386128de565b5b50919050565b7f4552433732313a20617070726f76616c20746f2063757272656e74206f776e6560008201527f7200000000000000000000000000000000000000000000000000000000000000602082015250565b600061299b6021836122df565b91506129a68261293f565b604082019050919050565b600060208201905081810360008301526129ca8161298e565b9050919050565b7f4552433732313a20617070726f76652063616c6c6572206973206e6f7420746f60008201527f6b656e206f776e6572206f7220617070726f76656420666f7220616c6c000000602082015250565b6000612a2d603d836122df565b9150612a38826129d1565b604082019050919050565b60006020820190508181036000830152612a5c81612a20565b9050919050565b7f4552433732313a2063616c6c6572206973206e6f7420746f6b656e206f776e6560008201527f72206f7220617070726f76656400000000000000000000000000000000000000602082015250565b6000612abf602d836122df565b9150612aca82612a63565b604082019050919050565b60006020820190508181036000830152612aee81612ab2565b9050919050565b600081905092915050565b50565b6000612b10600083612af5565b9150612b1b82612b00565b600082019050919050565b6000612b3182612b03565b9150819050919050565b7f7769746864726177206661696c65640000000000000000000000000000000000600082015250565b6000612b71600f836122df565b9150612b7c82612b3b565b602082019050919050565b60006020820190508181036000830152612ba081612b64565b9050919050565b7f4552433732313a20696e76616c696420746f6b656e2049440000000000000000600082015250565b6000612bdd6018836122df565b9150612be882612ba7565b602082019050919050565b60006020820190508181036000830152612c0c81612bd0565b9050919050565b7f4552433732313a2061646472657373207a65726f206973206e6f74206120766160008201527f6c6964206f776e65720000000000000000000000000000000000000000000000602082015250565b6000612c6f6029836122df565b9150612c7a82612c13565b604082019050919050565b60006020820190508181036000830152612c9e81612c62565b9050919050565b7f4e4654206e6f74206f70656e20666f72207075626c6963207965740000000000600082015250565b6000612cdb601b836122df565b9150612ce682612ca5565b602082019050919050565b60006020820190508181036000830152612d0a81612cce565b9050919050565b7f4e487b7100000000000000000000000000000000000000000000000000000000600052601160045260246000fd5b6000612d4b8261238f565b9150612d568361238f565b9250817fffffffffffffffffffffffffffffffffffffffffffffffffffffffffffffffff0483118215151615612d8f57612d8e612d11565b5b828202905092915050565b7f696e73756666696369656e7420616d6f756e7420706173736564000000000000600082015250565b6000612dd0601a836122df565b9150612ddb82612d9a565b602082019050919050565b60006020820190508181036000830152612dff81612dc3565b9050919050565b6000612e118261238f565b9150612e1c8361238f565b9250827fffffffffffffffffffffffffffffffffffffffffffffffffffffffffffffffff03821115612e5157612e50612d11565b5b828201905092915050565b7f536f6c64206f7574000000000000000000000000000000000000000000000000600082015250565b6000612e926008836122df565b9150612e9d82612e5c565b602082019050919050565b60006020820190508181036000830152612ec181612e85565b9050919050565b7f4d6178696d756d207065722077616c6c65742072656163686564000000000000600082015250565b6000612efe601a836122df565b9150612f0982612ec8565b602082019050919050565b60006020820190508181036000830152612f2d81612ef1565b9050919050565b6000612f3f8261238f565b91507fffffffffffffffffffffffffffffffffffffffffffffffffffffffffffffffff821415612f7257612f71612d11565b5b600182019050919050565b7f546f6b656e20646f6573206e6f74206578697374730000000000000000000000600082015250565b6000612fb36015836122df565b9150612fbe82612f7d565b602082019050919050565b60006020820190508181036000830152612fe281612fa6565b9050919050565b600081905092915050565b60008190508160005260206000209050919050565b600081546130168161290d565b6130208186612fe9565b9450600182166000811461303b576001811461304c5761307f565b60ff1983168652818601935061307f565b61305585612ff4565b60005b8381101561307757815481890152600182019150602081019050613058565b838801955050505b50505092915050565b6000613093826122d4565b61309d8185612fe9565b93506130ad8185602086016122f0565b80840191505092915050565b7f2e6a736f6e000000000000000000000000000000000000000000000000000000600082015250565b60006130ef600583612fe9565b91506130fa826130b9565b600582019050919050565b60006131118285613009565b915061311d8284613088565b9150613128826130e2565b91508190509392505050565b7f4f776e61626c653a206e6577206f776e657220697320746865207a65726f206160008201527f6464726573730000000000000000000000000000000000000000000000000000602082015250565b60006131906026836122df565b915061319b82613134565b604082019050919050565b600060208201905081810360008301526131bf81613183565b9050919050565b7f4552433732313a207472616e736665722066726f6d20696e636f72726563742060008201527f6f776e6572000000000000000000000000000000000000000000000000000000602082015250565b60006132226025836122df565b915061322d826131c6565b604082019050919050565b6000602082019050818103600083015261325181613215565b9050919050565b7f4552433732313a207472616e7366657220746f20746865207a65726f2061646460008201527f7265737300000000000000000000000000000000000000000000000000000000602082015250565b60006132b46024836122df565b91506132bf82613258565b604082019050919050565b600060208201905081810360008301526132e3816132a7565b9050919050565b7f4f776e61626c653a2063616c6c6572206973206e6f7420746865206f776e6572600082015250565b60006133206020836122df565b915061332b826132ea565b602082019050919050565b6000602082019050818103600083015261334f81613313565b9050919050565b7f4552433732313a20617070726f766520746f2063616c6c657200000000000000600082015250565b600061338c6019836122df565b915061339782613356565b602082019050919050565b600060208201905081810360008301526133bb8161337f565b9050919050565b7f4552433732313a207472616e7366657220746f206e6f6e20455243373231526560008201527f63656976657220696d706c656d656e7465720000000000000000000000000000602082015250565b600061341e6032836122df565b9150613429826133c2565b604082019050919050565b6000602082019050818103600083015261344d81613411565b9050919050565b7f4e487b7100000000000000000000000000000000000000000000000000000000600052601260045260246000fd5b600061348e8261238f565b91506134998361238f565b9250828210156134ac576134ab612d11565b5b828203905092915050565b600081519050919050565b600082825260208201905092915050565b60006134de826134b7565b6134e881856134c2565b93506134f88185602086016122f0565b61350181612323565b840191505092915050565b60006080820190506135216000830187612424565b61352e6020830186612424565b61353b60408301856124ba565b818103606083015261354d81846134d3565b905095945050505050565b60008151905061356781612245565b92915050565b6000602082840312156135835761358261220f565b5b600061359184828501613558565b91505092915050565b7f4552433732313a206d696e7420746f20746865207a65726f2061646472657373600082015250565b60006135d06020836122df565b91506135db8261359a565b602082019050919050565b600060208201905081810360008301526135ff816135c3565b9050919050565b7f4552433732313a20746f6b656e20616c7265616479206d696e74656400000000600082015250565b600061363c601c836122df565b915061364782613606565b602082019050919050565b6000602082019050818103600083015261366b8161362f565b905091905056fea2646970667358221220064942bd3445fe98cb8f261ec609f5a43a1928a6655c6c1f419899190cfd4cf464736f6c63430008090033",
    "linkReferences": {},
    "deployedLinkReferences": {}
}